:100000000C942A000C943C000C943C000C943C0092
:100010000C943C000C943C000C943C000C943C0070
:100020000C943C000C943C000C943C000C94A100FB
:100030000C943C000C943C000C943C000C943C0050
:100040000C943C000C943C000C943C000C943C0040
:100050000C943C0011241FBECFE5D4E0DEBFCDBF21
:1000600020E0A0E6B0E001C01D92A036B207E1F7A3
:100070000E94C6000C940E010C94000011B880E29E
:1000800080B9089594EA96BF06B607FEFDCF83B9FE
:1000900094E896BF06B607FEFDCF13B894E896BF66
:1000A00006B607FEFDCF94EA96BF06B607FEFDCF63
:1000B000816083B984E886BF06B607FEFDCF84EC75
:1000C00086BF06B607FEFDCF23B184E886BF06B61D
:1000D00007FEFDCF83B194E996BF90E0922B08957F
:1000E000DC01CB01880F991FAA1FBB1F880F991F26
:1000F000AA1FBB1F9C01AD01220F331F441F551FB8
:10010000220F331F441F551F60E072E18AE790E021
:100110000E94EC00BA01A90141505109610971091D
:1001200088E98AB986E880BDBB2777FDBA95A72FF5
:10013000962F852F80BD49B908955D9BFECF8CB960
:1001400008951F920F920FB60F9211242F933F9391
:100150004F935F936F937F938F939F93AF93BF93CF
:10016000EF93FF938CB10E949D00FF91EF91BF919F
:10017000AF919F918F917F916F915F914F913F913F
:100180002F910F900FBE0F901F90189578940E949A
:100190003E0060E875E280E090E00E94700080E937
:1001A0000E944200D82FC92F80E90E949D008D2F08
:1001B0000E949D008C2F0E949D0082E90E944200B7
:1001C000D82FC92F82E90E949D008D2F0E949D008B
:1001D0008C2F0E949D00E3CFA1E21A2EAA1BBB1B0D
:1001E000FD010DC0AA1FBB1FEE1FFF1FA217B30703
:1001F000E407F50720F0A21BB30BE40BF50B661F19
:10020000771F881F991F1A9469F7609570958095DC
:1002100090959B01AC01BD01CF010895F894FFCFEB
:00000001FF
